:100000000C943E000C9448000C9448000C9448005A
:100010000C9448000C9448000C9448000C94480040
:100020000C9448000C9448000C9448000C94480030
:100030000C9448000C9448000C9448000C94480020
:100040000C9448000C9448000C9448000C94480010
:100050000C9448000C9448000C9448000C94480000
:100060000C9448000C9448000C9448000C944800F0
:100070000C9448000C9448000C94480011241FBEB6
:10008000CFEFD8E0DEBFCDBF0E94BC000C94C30010
:100090000C940000529884B1836084B908954A9BFF
:1000A0000BC08FE097E20197F1F700C0000089B123
:1000B00082FB882780F9089580E0089582309105B9
:1000C00079F02CF4009749F0019721F008950397F7
:1000D000E1F00895289A29980895299A2898089572
:1000E00081E090E00E945E008FE19EE40197F1F7CD
:1000F00000C0000090E080E00E945E008FEC97E07E
:100100000197F1F700C00000089585B18C7F85B993
:100110000895CF93DF930E944F0081112BC0CAE056
:10012000D0E081E090E00E945E008FE493EC0197C4
:10013000F1F700C0000083E090E00E945E008FE4D1
:1001400093EC0197F1F700C00000219751F7DF9180
:10015000CF910895C15019F32FEF89E698E121500E
:1001600080409040E1F700C000000E944F008111E4
:10017000F1CFD5CFCDE0F9CF0E944A000E9489008F
:0A01800090E080E00895F894FFCFAE
:00000001FF
