:100000000C943E000C9448000C9448000C9448005A
:100010000C9448000C9448000C9448000C94480040
:100020000C9448000C9448000C9448000C94480030
:100030000C9448000C9448000C9448000C94480020
:100040000C9448000C9448000C9448000C94480010
:100050000C9448000C9448000C9448000C94480000
:100060000C9448000C9448000C9448000C944800F0
:100070000C9448000C9448000C94480011241FBEB6
:10008000CFEFD8E0DEBFCDBF0E94EC000C94F000B3
:100090000C940000529884B1836084B908959C0147
:1000A00090E080E0821793070CF00895EFECF7E002
:1000B0003197F1F700C000000196F4CF4A9B0BC0C6
:1000C0008FE097E20197F1F700C0000089B182FB51
:1000D000882780F9089580E008958230910579F0AD
:1000E0002CF4009749F0019721F008950397E1F06F
:1000F0000895289A29980895299A2898089581E0C2
:1001000090E00E946D008FE19EE40197F1F700C03E
:10011000000090E080E00E946D008FEC97E0019776
:10012000F1F700C00000089585B18C7F85B908956E
:10013000CF93DF93D62FC72F0E946D008D2F9C2F5A
:100140000E944F0083E090E00E946D008D2F9C2F55
:10015000DF91CF910C944F00C0E00E945E00882395
:10016000E1F30E945E00811120C00AE010E069E125
:1001700070E081E090E00E94980001501109B9F709
:1001800080ED97E00E944F00EC2EE694F12C10E0F9
:1001900000E00E151F058CF081E090E00E946D00DC
:1001A00088EE93E00E944F00D8CFC837F1F2C65FC7
:1001B00088EE93E00E944F00D4CF6AEF70E090E0A9
:1001C00080E00E9498006AEF70E090E080E00E947A
:1001D00098000F5F1F4FDDCF0E944A000E94AC00C5
:0401E000F894FFCFC1
:00000001FF
