:100000000C9440000C9468000C9468000C946800F8
:100010000C9468000C9468000C9468000C946800C0
:100020000C9468000C946A000C9468000C946800AE
:100030000C9468000C9468000C9468000C946800A0
:100040000C9468000C9468000C9468000C94680090
:100050000C9468000C9468000C9468000C94680080
:100060000C9468000C9468000C9468000C94680070
:100070000C9468000C9468000C946800A208A60810
:1000800011241FBECFEFD8E0DEBFCDBF11E0A0E04E
:10009000B1E0E2E0F5E102C005900D92A639B107AA
:1000A000D9F721E0A6E9B1E001C01D92AA3BB20751
:1000B000E1F710E0CFE3D0E004C02197FE010E94F9
:1000C000D208CE33D107C9F70E9485080C94740A70
:1000D0000C9400008F9381E0809396018F91189586
:1000E0001092B20092E09093800027E02093B1003C
:1000F000909370008093B300089510927C0086E87E
:1001000080937A00089510927A00089580917C007F
:10011000807E80937C0080917C006770682B609368
:100120007C0080917A00806480937A0080917A00CC
:1001300084FFFCCF80917A00806180937A002091C7
:1001400078008091790090E0982F8827820F911D88
:100150000895CF93DF93EC010E943A05CE010196FA
:100160000E946103CE0102960E947D00CE0103969B
:100170000E9499061C8287E08D8392E09E8384E032
:100180008F8388E0888780E1898780E28A8780B1D1
:1001900085FB882780F98B8780B1829581708C8759
:1001A00080B183FB882780F98D8780B182FB882707
:1001B00080F98E8780B1869581708F87988B8FEFBD
:1001C000898B8DE48A8B8FE28B8B81B1807C81B9A6
:1001D0000F98DF91CF910895CF93DF93EC016D815C
:1001E00002960E948600288902C0969587952A95D6
:1001F000E2F7DF91CF910895CF93DF93EC018FE584
:100200009AEE0197F1F700C00000CE010E94EC00C9
:100210009A89891758F4CE010E94EC009A899817A0
:1002200078F4CE010E94EC0081E007C0CE010E946C
:10023000EC009989981778F380E0DF91CF910895C9
:10024000CE010E94EC009B89891758F3F5CFCF931C
:10025000FC01148240B1B2854B2381E0B41380E0ED
:10026000838730B1A1853A2381E0A31380E084879E
:1002700020B17085272381E0721380E0858790B1DB
:100280006781962381E0691380E0868780B156817B
:100290008523C1E05813C0E0C787B41302C041E012
:1002A0004483A31303C034813F5F3483721303C0BC
:1002B00024812F5F2483691303C094819F5F9483FB
:1002C000581303C084818F5F8483CF910895EC011C
:1002D0008C010D5F1F4FCE010E94FC00882309F4A2
:1002E000AFC0CE010E9427018C81823009F442C048
:1002F00030F481110AC0CE010E94FB05ECCF83309F
:1003000009F458C08530B9F3E6CF8D85882329F0EC
:100310006CE3CE010E94BF05DECF8E8548E261E42A
:10032000811124C08F85882361F0CE010E942701AE
:100330008D858111D0CF44E162E3CE010E94DD05BD
:10034000F4CF8B85882361F0CE010E9427018D8533
:100350008111C1CF42E364E1CE010E94DD05F4CFFB
:100360008C8541E4882309F4B6CF68E2CE010E946F
:10037000DD05B1CF8B85882329F08C85882311F08A
:1003800042E3F3CF8F85882331F08E85882319F0DF
:1003900048E262E3EBCF8C85882319F08D858111CB
:1003A000EFCF8E85882309F496CF8D85882309F4B5
:1003B00092CFEECF8D858823F9F09E859923E1F0C9
:1003C0009F859923C9F06CE3CE010E94BF052FEFF2
:1003D00080E792E0215080409040E1F700C00000AB
:1003E000CE010E9427018D85811175CF44E162E322
:1003F000CE010E94DD05F4CF9B85992309F46BCFD4
:100400009C85992309F467CF882309F464CF63E2BC
:10041000CE010E94BF052FEF80E792E0215080407F
:100420009040E1F700C00000CE010E9427018D85B9
:10043000811151CF42E364E1CE010E94DD05F4CF8A
:10044000CE010E94FB0568E3C8010E94A1062FEFC0
:1004500089E698E1215080409040E1F700C000001B
:10046000C8010E94F8066CE3CE010E94BF052FEF81
:1004700089E698E1215080409040E1F700C00000FB
:100480002ACFCF93DF93EC010E9427018C81823029
:1004900009F446C038F481110DC0CE01DF91CF912F
:1004A0000C94FB05833009F45BC08530B1F3DF9118
:1004B000CF9108958D85882331F06CE3CE01DF91D3
:1004C000CF910C94BF058E8548E261E4811123C071
:1004D0008F85882361F0CE010E9427018D858111CF
:1004E000E6CF44E162E3CE010E94DD05F4CF8B85C7
:1004F000882361F0CE010E9427018D858111D7CF1D
:1005000042E364E1CE010E94DD05F4CF8C8541E435
:10051000882369F268E2CE01DF91CF910C94DD056A
:100520008B85882329F08C85882311F042E3F2CF54
:100530008F85882331F08E85882319F048E262E3A5
:10054000EACF8C85882319F08D858111EFCF8E85B8
:10055000882309F4ACCF8D85882309F4A8CFEECF8A
:100560008D858823F9F09E859923E1F09F85992355
:10057000C9F06CE3CE010E94BF052FEF80E792E047
:10058000215080409040E1F700C00000CE010E9461
:1005900027018D8581118BCF44E162E3CE010E945A
:1005A000DD05F4CF9B85992309F481CF9C859923A0
:1005B00009F47DCF882309F47ACF63E2CE010E944B
:1005C000BF052FEF80E792E0215080409040E1F797
:1005D00000C00000CE010E9427018D85811167CFE8
:1005E00042E364E1CE010E94DD05F4CFCF93DF93B7
:1005F000EC010E943A05CE0101960E947D00CE01D9
:1006000002960E941C08CE0103960E94990687E07C
:100610008C8382E08D838FEF8E838DE48F8382E3E2
:1006200088870F98DF91CF910895CF93DF93EC01E6
:100630006C8101960E9486002D8102C09695879557
:100640002A95E2F7DF91CF910895CF93DF93EC01E4
:100650008FE59AEE0197F1F700C00000CE010E94ED
:100660001503682FCE0102960E942C089FEF24E309
:100670008CE0915020408040E1F700C00000CE01A6
:100680000E9415039F81891758F4CE010E9415031B
:100690009F81981778F4CE010E94150381E007C06E
:1006A000CE010E9415039E81981778F380E0DF91B8
:1006B000CF910895CE010E9415039885891758F3AC
:1006C000F5CF87B1806C87B9089588B118B8469A7C
:1006D000089588B118B888B118B8089588B118B8C5
:1006E000479A0895CF93DF93D82FC92F0E946503AF
:1006F0008FE19EE40197F1F700C000008D2F9C2F41
:100700000E946E038FE097E20197F1F700C00000AE
:10071000DF91CF910895089580EA809300011092AF
:10072000B90080E28093B8000895FC0180E88083DE
:10073000CF010C948C03982F9370891305C0880FF8
:10074000806A8093000108958FEF0895FA0194EA7A
:1007500024E89093BC008091BC0087FFFCCF80917F
:1007600000018093BB002093BC008091BC0087FFF8
:10077000FCCF8091B900883161F784EA8093BC0096
:100780008091BC0087FFFCCF809100018093BB006B
:1007900084E88093BC008091BC0087FFFCCF7093FD
:1007A000BB0084E88093BC008091BC0087FFFCCF35
:1007B0006093BB0084E88093BC008091BC0087FFFD
:1007C000FCCF8091BC0087FFFCCF84EA8093BC0003
:1007D0008091BC0087FFFCCF809100018F5F8093E8
:1007E000BB0084E88093BC008091BC0087FFFCCFF5
:1007F00084E88093BC008091BC0087FFFCCF80918F
:10080000BB00808384E98093BC0080E0089594EA73
:1008100034E89093BC008091BC0087FFFCCF8091AE
:1008200000018093BB003093BC008091BC0087FF27
:10083000FCCF8091B900883161F784EA8093BC00D5
:100840008091BC0087FFFCCF809100018093BB00AA
:1008500084E88093BC008091BC0087FFFCCF70933C
:10086000BB0084E88093BC008091BC0087FFFCCF74
:100870006093BB0084E88093BC008091BC0087FF3C
:10088000FCCF84EA8093BC008091BC0087FFFCCF42
:10089000809100018F5F8093BB0084E88093BC004F
:1008A0008091BC0087FFFCCF84EC211105C084E956
:1008B0008093BC0080E00895213009F484E880939F
:1008C000BC009091BC0097FFFCCF9091BB00FA0157
:1008D00091932150AF01E9CF94EA24E89093BC00B2
:1008E0008091BC0087FFFCCF809100018093BB000A
:1008F0002093BC008091BC0087FFFCCF8091B900A1
:10090000883161F784EA8093BC008091BC0087FF46
:10091000FCCF809100018093BB0084E88093BC00F1
:100920008091BC0087FFFCCF7093BB0084E880936C
:10093000BC008091BC0087FFFCCF6093BB0084E8C3
:100940008093BC008091BC0087FFFCCF4093BB002C
:1009500084E88093BC008091BC0087FFFCCF84E9D1
:100960008093BC0080E00895FB01260F372F311DD6
:10097000DC018C918150990B862B9F2B281739070E
:1009800018F09C012F5F3F4F822F8E1B24EA34E822
:100990002093BC009091BC0097FFFCCF9091000188
:1009A0009093BB003093BC009091BC0097FFFCCFAC
:1009B0009091B900983161F794EA9093BC009091BE
:1009C000BC0097FFFCCF909100019093BB0094E88E
:1009D0009093BC009091BC0097FFFCCFF093BB00BC
:1009E00094E89093BC009091BC0097FFFCCFE093FB
:1009F000BB0094E89093BC009091BC0097FFFCCFA3
:100A0000982F24E8911104C094E99093BC000895B4
:100A1000FA0131913093BB002093BC003091BC00AF
:100A200037FFFCCF9150AF01EDCFDF92EF92FF92F5
:100A30000F931F93CF93DF93D82ED92F7B018A0179
:100A4000C22F2C2FA801B7018D2D9D2F0E94B40419
:100A5000282F30E0E20EF31EC81B020F131FC11136
:100A6000F0CF80E0DF91CF911F910F91FF90EF9039
:100A7000DF9008952FEFFC0120838AB1806F8AB93F
:100A8000E0E8F0E08081816F8083E1E8F0E0808140
:100A9000826080838FEF90E090938900809388003C
:100AA00090938B0080938A00089570E07093890082
:100AB0006093880050E050938B0040938A00089523
:100AC000FC016536710568F44081469FC001479F6F
:100AD000900D11246CE97FEF0E94AA088FEF860F1A
:100AE000089580E008950F931F93CF93DF9300D074
:100AF00000D000D0CDB7DEB78A016E837D83FC01C4
:100B00008081282F30E050E040E029833A834B83F6
:100B10005C83CA01B9010E947B099B01AC01098376
:100B20001A838E818B83ED81EC8369817A818B813D
:100B30009C810E94D80820E030E048EC52E46983B0
:100B40007A838B839C8369817A818B819C810E94CB
:100B5000070A69837A838B839C8369817A818B817D
:100B60009C810E944A09862F26960FB6F894DEBF14
:100B70000FBECDBFDF91CF911F910F91089570E00F
:100B80000E9460055E985F9890E090938900809342
:100B9000880090938B0080938A00089570E00E94F3
:100BA00060055E9A5F9A90E0909389008093880038
:100BB00090938B0080938A0008950F931F93CF9397
:100BC000DF938C01D42F70E00E946005C82F6D2F39
:100BD00070E0C8010E946005D0E0D0938900C09306
:100BE000880090E090938B0080938A00DF91CF91F2
:100BF0001F910F9108958FEF90E09093890080935B
:100C0000880090938B0080938A000895CF93DF93A0
:100C1000EC0189819A818130910581F082309105C2
:100C200081F0892B41F4CE0106960E94670181E094
:100C300090E09A838983DF91CF91089582E090E0DC
:100C4000F8CFCE0106960E9467011A821982F3CF6F
:100C500006960C94670108950F931F93CF93DF932B
:100C6000EC018C010A5F1F4F8881882329F0DF91F6
:100C7000CF911F910F910895C8010E944102F4CFB6
:100C80002A980895CF93DF9300D000D0CDB7DEB778
:100C90002A9A282F2D52330BF901EE0FFF1FEE0F6A
:100CA000FF1FEF5FFE4F208131814281538160E061
:100CB00070E080E89FE30E94D80820E034E244EF2F
:100CC0005AE469837A838B839C8369817A818B81DF
:100CD0009C810E94070A20E030E040E05FE36983E6
:100CE0007A838B839C8369817A818B819C810E942A
:100CF000070A20E030E040E85BE369837A838B8376
:100D00009C8369817A818B819C810E94070A698317
:100D10007A838B839C8369817A818B819C810E94F9
:100D20004A0967BD0F900F900F900F90DF91CF9100
:100D30000895239A84B5826484BD85B5846085BD99
:100D40000895CF93DF9300D000D0CDB7DEB72A9AB5
:100D5000862F8D52990BFC01EE0FFF1FEE0FFF1F28
:100D6000EF5FFE4F208131814281538160E070E06E
:100D700080E89FE30E94D80820E034E244EF5AE480
:100D800069837A838B839C8369817A818B819C813F
:100D90000E94070A20E030E040E05FE369837A8345
:100DA0008B839C8369817A818B819C810E94070A55
:100DB00020E030E040E85BE369837A838B839C83A7
:100DC00069817A818B819C810E94070A69837A8379
:100DD0008B839C8369817A818B819C810E944A09E3
:100DE00067BD0F900F900F900F90DF91CF910895F6
:100DF0002A98089580E40E9442062FEF81EE94E045
:100E0000215080409040E1F700C000000E94400661
:100E10008FE79EE30197F1F700C0000080E40E9495
:100E200042069FEF23E185E0915020408040E1F7AA
:100E300000C000000E9440069FEF23E185E0915032
:100E400020408040E1F700C0000080E40E9442069C
:100E50009FEF23E185E0915020408040E1F700C002
:100E600000000E9440069FEF23E185E09150204062
:100E70008040E1F700C000008CE30E9442069FEF33
:100E800023E185E0915020408040E1F700C0000060
:100E900080E40E9442069FEF23E185E091502040CC
:100EA0008040E1F700C000000E9440069FEF23E170
:100EB00085E0915020408040E1F700C0000083E4CD
:100EC0000E9442069FEF23E185E091502040804040
:100ED000E1F700C000000E9440069FEF2BE38FE087
:100EE000915020408040E1F700C0000087E30E945D
:100EF00042069FEF23E185E0915020408040E1F7DA
:100F000000C000000C94400687E40E9442062FEFC8
:100F100082E597E0215080409040E1F700C000005A
:100F20008DE40E9442062FE789EA93E02150804039
:100F30009040E1F700C000000E9440062FE78CEFD0
:100F40009AE0215080409040E1F700C000008DE41D
:100F50000E9442062FE784E197E0215080409040B4
:100F6000E1F700C000000E9440068FE19EE4019777
:100F7000F1F700C000008DE40E9442069FEF22E5D9
:100F800087E0915020408040E1F700C000008CE4F1
:100F90000E9442069FEF22E587E09150204080406A
:100FA000E1F700C000008AE40E9442069FEF22E5BC
:100FB00087E0915020408040E1F700C0000088E4C5
:100FC0000E9442069FEF22E587E09150204080403A
:100FD000E1F700C0000080E40E9442069FE729EA92
:100FE00083E0915020408040E1F700C000000E9463
:100FF00040069FEF22E587E0915020408040E1F7D6
:1010000000C0000080E40E9442069FE729EA83E0D6
:10101000915020408040E1F700C000008CE30E9426
:1010200042069FE729EA83E0915020408040E1F7A3
:1010300000C000000C9440061092C5008FEC809315
:10104000C400E1ECF0E0808188618083E2ECF0E0B4
:1010500080818660808308958091C00085FFFCCFE9
:101060006093C60008958091C00087FFFCCF8091F7
:10107000C6000895EF92FF920F931F93CF93DF93D3
:10108000182F092FEB017B01E40EF11CCE15DF05B3
:1010900039F4DF91CF911F910F91FF90EF90089558
:1010A0006991812F902F0E942C08F0CFCF93DF936E
:1010B000EC0118821A82198203960E946103CE0104
:1010C00004960E949503CE0105960E949906CE01D2
:1010D00006960E94A900CE014A960E94F602CE0111
:1010E0008396DF91CF910C943A05CF93DF93EC0177
:1010F0004B960E948300CE0108960E948300CE0189
:101100000496DF91CF910C948B03CDB7DEB7A497F3
:101110000FB6F894DEBF0FBECDBFCE0101960E9480
:101120005608CE0101960E942806CE0101960E9423
:10113000750890E080E0A4960FB6F894DEBF0FBE6D
:10114000CDBF089586E991E00C94560886E991E0B8
:101150000C94750897FB072E16F4009407D077FDC2
:1011600009D00E94BE0807FC05D03EF490958195F9
:101170009F4F0895709561957F4F0895AA1BBB1BE3
:1011800051E107C0AA1FBB1FA617B70710F0A61B87
:10119000B70B881F991F5A95A9F780959095BC01A8
:1011A000CD010895EE0FFF1F0590F491E02D0994F5
:1011B0000E94EC080C94CD090E94C60958F00E94C8
:1011C000BF0940F029F45F3F29F00C94B609511192
:1011D0000C94010A0C94BC090E94DE0968F399235F
:1011E000B1F3552391F3951B550BBB27AA27621723
:1011F0007307840738F09F5F5F4F220F331F441F30
:10120000AA1FA9F335D00E2E3AF0E0E832D0915063
:101210005040E695001CCAF72BD0FE2F29D0660F50
:10122000771F881FBB1F261737074807AB07B0E893
:1012300009F0BB0B802DBF01FF2793585F4F3AF099
:101240009E3F510578F00C94B6090C94010A5F3F5B
:10125000E4F3983ED4F3869577956795B795F7951F
:101260009F5FC9F7880F911D9695879597F9089507
:10127000E1E0660F771F881FBB1F621773078407A3
:10128000BA0720F0621B730B840BBA0BEE1F88F7B2
:10129000E09508950E94E60988F09F5798F0B92FCD
:1012A0009927B751B0F0E1F0660F771F881F991F9B
:1012B0001AF0BA95C9F714C0B13091F00E94000A33
:1012C000B1E008950C94000A672F782F8827B85F43
:1012D00039F0B93FCCF3869577956795B395D9F7F3
:1012E0003EF490958095709561957F4F8F4F9F4FFD
:1012F0000895E89409C097FB3EF490958095709509
:1013000061957F4F8F4F9F4F9923A9F0F92F96E951
:10131000BB279395F695879577956795B795F111C6
:10132000F8CFFAF4BB0F11F460FF1BC06F5F7F4F63
:101330008F4F9F4F16C0882311F096E911C0772375
:1013400021F09EE8872F762F05C0662371F096E87E
:10135000862F70E060E02AF09A95660F771F881F4D
:10136000DAF7880F9695879597F9089597F99F670B
:1013700080E870E060E008959FEF80EC089500241D
:101380000A941616170618060906089500240A94EA
:1013900012161306140605060895092E0394000C70
:1013A00011F4882352F0BB0F40F4BF2B11F460FFFF
:1013B00004C06F5F7F4F8F4F9F4F089557FD905828
:1013C000440F551F59F05F3F71F04795880F97FB09
:1013D000991F61F09F3F79F08795089512161306C3
:1013E0001406551FF2CF4695F1DF08C016161706F2
:1013F0001806991FF1CF8695710561050894089527
:10140000E894BB2766277727CB0197F908950E94B8
:101410001A0A0C94CD090E94BF0938F00E94C6092F
:1014200020F0952311F00C94B6090C94BC091124FA
:101430000C94010A0E94DE0970F3959FC1F3950F89
:1014400050E0551F629FF001729FBB27F00DB11D48
:10145000639FAA27F00DB11DAA1F649F6627B00DD8
:10146000A11D661F829F2227B00DA11D621F739FC1
:10147000B00DA11D621F839FA00D611D221F749FCF
:101480003327A00D611D231F849F600D211D822F16
:10149000762F6A2F11249F5750409AF0F1F088233D
:1014A0004AF0EE0FFF1FBB1F661F771F881F91506A
:1014B0005040A9F79E3F510580F00C94B6090C945A
:1014C000010A5F3FE4F3983ED4F3869577956795DC
:1014D000B795F795E7959F5FC1F7FE2B880F911D94
:1014E0009695879597F9089510E0CFE3D0E004C072
:1014F000FE010E94D2082196C034D107C9F7F894A2
:02150000FFCF1B
:10150200A00000DC427B14E942A4F0F6425CCF0268
:10151200430A9702437BD412435C8F1B435CCF2464
:1015220043299C2E43000039430000444366A64FE2
:101532004300005C437B146943A4F07643A4D08249
:10154200430A978A437BD49243A4909B43A4D0A49A
:1015520043719DAE43B8FEB8430000C44366A6CFB4
:10156200430000DC437B14E943A4F0F64300D002BD
:1015720044AE970A441FD5124400901B44A4D024C1
:1015820044719D2E445CFF38445CFF43440AA74FDC
:061592004400005C44006F
:00000001FF
