:100000000C943E000C945D000C9463000C945B0017
:100010000C945B000C945B000C945B000C945B00F4
:100020000C945B000C94050D0C945B000C945B002D
:100030000C945B000C945B000C945B000C945B00D4
:100040000C945B000C945B000C945B000C945B00C4
:100050000C945B000C945B000C945B000C945B00B4
:100060000C945B000C945B000C945B000C945B00A4
:100070000C945B000C945B000C945B0011241FBE7D
:10008000CFEFD8E0DEBFCDBF11E0A0E0B1E0EEE001
:10009000F6E202C005900D92AA39B107D9F721E026
:1000A000AAE9B1E001C01D92A13AB207E1F70E94AE
:1000B000F2100C9405130C9400008F9381E0809350
:1000C0009A018F9118951F920F920FB60F921124DB
:1000D0002F933F934F935F936F937F938F939F9350
:1000E000AF93BF93EF93FF93CF93DF930F92CDB76F
:1000F000DEB7CE0101960E94E30910929A01809129
:100100009C018230B1F410929C010F90DF91CF914D
:10011000FF91EF91BF91AF919F918F917F916F91DF
:100120005F914F913F912F910F900FBE0F901F90B5
:10013000189580919C018F5F80939C01E6CFF89485
:100140005298E9E6F0E0808183608083E89A7894B1
:100150000895F8945398E9E6F0E080818C608083FC
:10016000E99A78940895CF93DF93EC010E94360CBE
:10017000CE0101960E94E309CE0102960E94C610AC
:10018000CE0103960E94910ACE0104960E948C1023
:10019000CE0105960E94090F1E8287E08F83188684
:1001A00082E089871A861B861C861D861E861F860E
:1001B00091E0988B8A8B94E09B8B98E09C8B90E1EC
:1001C0009D8B90E29E8B90B195FB992790F99F8B28
:1001D00090B192959170988F90B193FB992790F977
:1001E000998F90B192FB992790F99A8F90B196953B
:1001F00091709B8F8C8F8FEF8D8F87E38E8F8EE129
:100200008F8F81B1807C81B90F98DF91CF91089554
:10021000EF92FF920F931F93CF938C017C0122E00A
:10022000E20EF11CFC016781C7010E94CF10F801AA
:10023000248D02C0969587952A95E2F7C82FFFEF87
:1002400020E782E0F15020408040E1F700C000004C
:10025000F8016781C7010E94CF109C01F801458D0C
:100260004C17F8F0978DC917E0F0848D02C03695D1
:1002700027958A95E2F7868DC81768F0421748F0EF
:10028000281788F08C2FCF911F910F91FF90EF903E
:1002900008958C1304C0821710F0291798F7C0E056
:1002A000F1CFC1E0EFCF8C13FACFF7CF1F93CF93ED
:1002B000DF93EC010E940801182F682FCE010496ED
:1002C0000E949C108E8D181758F09D8D911730F05C
:1002D000198A80E0DF91CF911F910895811306C0A4
:1002E0008F8D181718F081E0898BF3CF81E0F2CF62
:1002F000CF93FC01168240B1B6894B2381E0B41341
:1003000080E0878B30B1A5893A2381E0A31380E098
:10031000808F20B17489272381E0721380E0818F60
:1003200090B16389962381E0691380E0828F80B168
:1003300052898523C1E05813C0E0C38FB41302C0B3
:1003400041E04683A31303C036813F5F36837213B7
:1003500003C026812F5F2683691303C096819F5FA8
:100360009683581303C086818F5F8683CF9108954B
:10037000DF92EF92FF920F931F93CF93DF93EC01E5
:10038000F62EE42ED22E0E9478018E010F5F1F4FB1
:10039000C8010E94EB098E81823009F45BC060F4D1
:1003A000811118C0CE01DF91CF911F910F91FF9065
:1003B000EF90DF900C94FA0C833009F44EC1843036
:1003C00009F4EBC2DF91CF911F910F91FF90EF9055
:1003D000DF900895898D882359F062E3CE01DF9183
:1003E000CF911F910F91FF90EF90DF900C94BE0C76
:1003F0008A8D48E261E4811123C08B8D882361F0EE
:10040000CE010E947801898D8111DCCF44E162E345
:10041000CE010E94DC0CF4CF8F89882361F0CE01DD
:100420000E947801898D8111CDCF42E364E1CE0134
:100430000E94DC0CF4CF888D41E4882319F268E235
:10044000CE01DF91CF911F910F91FF90EF90DF9040
:100450000C94DC0C2F89222329F0888D882311F03D
:1004600042E3EDCF9B8D992331F08A8D882319F0DB
:1004700048E262E3E5CF898D388D332311F0811195
:10048000EFCF3A8D332391F18111F2CFD1108FC08C
:1004900088898111D5C321E0F21231C0C8010E94C0
:1004A000F009CE010E94FA0C8FEF93ED20E381500A
:1004B00090402040E1F700C000006CE3CE010E94B4
:1004C000BE0C8FEF99E628E1815090402040E1F783
:1004D00000C00000CE010E947801898D81113AC0D0
:1004E00040E062E3CE010E94DC0CF4CF882371F27D
:1004F000222309F467CF992309F464CFC7CF82E0A0
:10050000F81228C0C8010E94E709CE010E94FA0C27
:100510009FEF23ED80E3915020408040E1F700C041
:1005200000006CE3CE010E94BE0C9FEF29E688E13B
:10053000915020408040E1F700C00000CE010E94B1
:100540007801898D811106C042E360E0CE010E94EE
:10055000DC0CF4CF188A36CF92E0E912FBCFC80149
:100560000E94E709CE010E94FA0C2FEF83ED90E381
:10057000215080409040E1F700C000006CE3CE01C4
:100580000E94BE0C2FEF89E698E1215080409040F8
:10059000E1F700C00000CE010E947801898D811131
:1005A000D9CF42E360E0CE010E94DC0CF4CF21E021
:1005B000F21228C0C8010E94F009CE010E94FA0C74
:1005C0008FEF93ED20E3815090402040E1F700C091
:1005D00000006CE3CE010E94BE0C8FEF99E628E18B
:1005E000815090402040E1F700C00000CE010E9401
:1005F0007801898D8111AECF40E062E3CE010E9487
:10060000DC0CF4CF82E0F812A5CFC8010E94E70904
:10061000CE010E94FA0C9FEF23ED80E39150204021
:100620008040E1F700C000006CE3CE010E94BE0CE8
:100630009FEF29E688E1915020408040E1F700C01B
:100640000000CE010E947801898D811183CF42E3A1
:1006500060E0CE010E94DC0CF4CF898D882371F01C
:10066000888D882319F09A8D911108C09F8999234C
:1006700009F4E0C02B8D222309F4DCC0D11084C022
:10068000888991E0811107C3F91228C0C8010E942E
:10069000F009CE010E94FA0C2FEF83ED90E3215078
:1006A00080409040E1F700C000006CE3CE010E9462
:1006B000BE0C2FEF89E698E1215080409040E1F791
:1006C00000C00000CE010E947801898D811142CFC7
:1006D00040E062E3CE010E94DC0CF4CF22E0F21293
:1006E00039CFC8010E94E709CE010E94FA0C8FEFB2
:1006F00093ED20E3815090402040E1F700C00000DE
:100700006CE3CE010E94BE0C8FEF99E628E1815088
:1007100090402040E1F700C00000CE010E94780127
:10072000898D811117CF42E360E0CE010E94DC0C7D
:10073000F4CF82E0E8120ECFC8010E94E709CE0193
:100740000E94FA0C9FEF23ED80E3915020408040FF
:10075000E1F700C000006CE3CE010E94BE0C9FEFE9
:1007600029E688E1915020408040E1F700C0000078
:10077000CE010E947801898D8111ECCE42E360E0C8
:10078000CE010E94DC0CF4CF91E0F91228C0C80120
:100790000E94F009CE010E94FA0C2FEF83ED90E346
:1007A000215080409040E1F700C000006CE3CE0192
:1007B0000E94BE0C2FEF89E698E1215080409040C6
:1007C000E1F700C00000CE010E947801898D8111FF
:1007D000C1CE40E062E3CE010E94DC0CF4CF22E007
:1007E000F212B8CEC8010E94E709CE010E94FA0CAD
:1007F0008FEF93ED20E3815090402040E1F700C05F
:1008000000006CE3CE010E94BE0C8FEF99E628E158
:10081000815090402040E1F700C00000CE010E94CE
:100820007801898D811196CE42E360E0CE010E946D
:10083000DC0CF4CF2A8D222309F458C02B8D2223FF
:1008400009F454C08E8580FD28C0CE010E94FA0CA8
:100850008FEF99E628E1815090402040E1F700C0F9
:1008600000006CE3CE010E94BE0C8FEF99E628E1F8
:10087000815090402040E1F700C00000CE010E946E
:100880007801898D811106C042E360E0CE010E94AB
:10089000DC0CF4CF8E858F5F8E878E85882309F4DC
:1008A00091CDCE010E94FA0C8FEF99E628E181509C
:1008B00090402040E1F700C000006CE3CE010E94B0
:1008C000BE0C8FEF99E628E1815090402040E1F77F
:1008D00000C00000CE010E947801898D81111DC1E8
:1008E00040E062E3CE010E94DC0CF4CF992309F4CE
:1008F00069CD882309F466CD8E8580FD25C0CE01A3
:100900000E94FA0C8FEF99E628E181509040204038
:10091000E1F700C000006CE3CE010E94BE0C8FEF37
:1009200099E628E1815090402040E1F700C00000A6
:10093000CE010E947801898D811106C040E062E3FA
:10094000CE010E94DC0CF4CF8E85882309F43ACDC9
:10095000CE010E94FA0C8FEF99E628E18150904079
:100960002040E1F700C000006CE3CE010E94BE0C05
:100970008FEF99E628E1815090402040E1F700C0D8
:100980000000CE010E947801898D8111C6C042E32A
:1009900060E0CE010E94DC0CF4CF988D898D992304
:1009A00009F45CC0882309F459C02A8D222309F474
:1009B00055C02B8D222309F451C08E8580FD02CDB8
:1009C000CE010E94FA0C8FEF99E628E18150904009
:1009D0002040E1F700C000006CE3CE010E94BE0C95
:1009E0008FEF99E628E1815090402040E1F700C068
:1009F0000000CE010E947801898D811106C042E37A
:100A000060E0CE010E94DC0CF4CF8E85882309F4CF
:100A1000D9CCCE010E94FA0C8FEF99E628E18150E3
:100A200090402040E1F700C000006CE3CE010E943E
:100A3000BE0C8FEF99E628E1815090402040E1F70D
:100A400000C00000CE010E947801898D811165C02F
:100A500040E062E3CE010E94DC0CF4CF2F89222318
:100A600009F45FC0992309F46BC1882309F462C0BB
:100A70008A8D882309F467C18E8580FD25C0CE014B
:100A80000E94FA0C8FEF99E628E1815090402040B7
:100A9000E1F700C000006CE3CE010E94BE0C8FEFB6
:100AA00099E628E1815090402040E1F700C0000025
:100AB000CE010E947801898D811106C040E062E379
:100AC000CE010E94DC0CF4CF8E85882309F47ACC09
:100AD000CE010E94FA0C8FEF99E628E181509040F8
:100AE0002040E1F700C000006CE3CE010E94BE0C84
:100AF0008FEF99E628E1815090402040E1F700C057
:100B00000000CE010E947801898D811106C042E368
:100B100060E0CE010E94DC0CF4CF8E858F5F8E8763
:100B200051CC882339F0992309F44CCC8A8D882341
:100B300009F448CCD11046CC88898111D6C081E017
:100B4000F81228C0C8010E94F009CE010E94FA0CD8
:100B50009FEF23ED80E3915020408040E1F700C0FB
:100B600000006CE3CE010E94BE0C9FEF29E688E1F5
:100B7000915020408040E1F700C00000CE010E946B
:100B80007801898D8111E6CC40E062E3CE010E94BC
:100B9000DC0CF4CF92E0F912DDCCC8010E94E70929
:100BA000CE010E94FA0C2FEF83ED90E3215080409C
:100BB0009040E1F700C000006CE3CE010E94BE0C43
:100BC0002FEF89E698E1215080409040E1F700C086
:100BD0000000CE010E947801898D8111BBCC42E3D7
:100BE00060E0CE010E94DC0CF4CF22E0E212B2CC35
:100BF000C8010E94E709CE010E94FA0C8FEF93ED25
:100C000020E3815090402040E1F700C000006CE3F9
:100C1000CE010E94BE0C8FEF99E628E181509040F2
:100C20002040E1F700C00000CE010E947801898DCC
:100C3000811190CC42E360E0CE010E94DC0CF4CF45
:100C400081E0E81289CCC8010E94F009CE010E941F
:100C5000FA0C9FEF23ED80E3915020408040E1F7B4
:100C600000C000006CE3CE010E94BE0C9FEF29E69D
:100C700088E1915020408040E1F700C00000CE01A3
:100C80000E947801898D811165CC40E062E3CE013C
:100C90000E94DC0CF4CFE9124CCDC8010E94F0098F
:100CA000CE010E94FA0C8FEF93ED20E3815090402B
:100CB0002040E1F700C000006CE3CE010E94BE0CB2
:100CC0008FEF99E628E1815090402040E1F700C085
:100CD0000000CE010E947801898D81113BCC40E05B
:100CE00062E3CE010E94DC0CF4CF21E0E2127DCF62
:100CF000C8010E94F009CE010E94FA0C2FEF83ED8B
:100D000090E3215080409040E1F700C000006CE388
:100D1000CE010E94BE0C2FEF89E698E12150804061
:100D20009040E1F700C00000CE010E947801898D5B
:100D3000811110CC40E062E3CE010E94DC0CF4CFC4
:100D4000882309F4F7CE8B8DF2CECF93DF93EC019D
:100D50000E9478018E81833009F469C040F48130AB
:100D600081F0823009F443C0DF91CF91089584303F
:100D700009F4A3C08530C1F7CE01DF91CF910C9467
:100D8000FA0C898D882331F062E3CE01DF91CF9197
:100D90000C94BE0C8A8D48E261E4811123C08B8DD6
:100DA000882361F0CE010E947801898D8111DCCF0A
:100DB00044E162E3CE010E94DC0CF4CF8F898823EA
:100DC00061F0CE010E947801898D8111CDCF42E37F
:100DD00064E1CE010E94DC0CF4CF888D882321F2DF
:100DE00041E468E2CE01DF91CF910C94DC0C8F8955
:100DF000882329F0888D882311F042E3F2CF8B8D70
:100E0000882331F08A8D882319F048E262E3EACF23
:100E1000888D882319F0898D8111EFCF8A8D8823E1
:100E200009F4A2CF898D882309F49ECFEECF898D56
:100E30008823F9F09A8D9923E1F09B8D9923C9F0CD
:100E40006CE3CE010E94BE0C2FEF80E792E02150B0
:100E500080409040E1F700C00000CE010E94780180
:100E6000898D811181CF44E162E3CE010E94DC0CC7
:100E7000F4CF9F89992309F477CF988D992309F4AA
:100E800073CF882309F470CF63E2CE010E94BE0CB9
:100E90002FEF80E792E0215080409040E1F700C0C2
:100EA0000000CE010E947801898D81115DCF42E35F
:100EB00064E1CE010E94DC0CF4CF898D8823F9F027
:100EC0009A8D9923E1F09B8D9923C9F06CE3CE01B3
:100ED0000E94BE0C2FEF80E792E0215080409040AE
:100EE000E1F700C00000CE010E947801898D8111D8
:100EF0003BCF44E162E3CE010E94DC0CF4CF9F893A
:100F0000992309F431CF988D992309F42DCF8823A3
:100F100009F42ACF63E2CE010E94BE0C2FEF80E7D6
:100F200092E0215080409040E1F700C00000CE01E7
:100F30000E947801898D811117CF42E364E1CE01CF
:100F40000E94DC0CF4CF0F931F93CF93DF93EC013F
:100F50000E945601882309F49DC0CE010E947801A9
:100F60008E81823009F440C0853009F45FC0813041
:100F700009F057C0898D882341F062E3CE01DF91EB
:100F8000CF911F910F910C94BE0C8A8D48E261E4C1
:100F9000811123C08B8D882361F0CE010E947801DE
:100FA000898D81113EC044E162E3CE010E94DC0CD8
:100FB000F4CF8F89882361F0CE010E947801898D5A
:100FC00081112FC042E364E1CE010E94DC0CF4CF1A
:100FD000888D882331F141E468E2CE01DF91CF9121
:100FE0001F910F910C94DC0C8F89882329F0888D38
:100FF000882311F042E3F0CF8B8D882331F08A8D66
:10100000882319F048E262E3E8CF888D882319F03D
:10101000898D8111EFCF8A8D882319F0898D8111F7
:10102000F1CFDF91CF911F910F9108958FE19EE451
:101030000197F1F700C000008E010D5F1F4F4A8538
:1010400061E070E0C8010E94680B8FE19EE40197A7
:10105000F1F700C000004B8562E070E0C8010E941B
:10106000680B8FE19EE40197F1F700C000004C850A
:1010700063E070E0C8010E94680B8FE19EE4019775
:10108000F1F700C00000CE01DF91CF911F910F91C9
:101090000C94FA0C88858F5F888799898E010B5F85
:1010A0001F4F91112FC0813019F58A87CE010E9400
:1010B000FA0C61E5C8010E94110F9FEF29E688E153
:1010C000915020408040E1F700C00000C8010E941C
:1010D000680F0CED15E0CE010E94A5068FEC97E09D
:1010E0000197F1F700C0000001501109A1F799CF55
:1010F000823019F481E08B87D9CF8330B9F681E053
:101100008C87D4CF813039F482E08A87CE010E9467
:10111000FA0C6DE2CFCF823011F48B87F7CF83309A
:10112000A9F782E08C87F2CFCF93DF93EC010E9486
:1011300078018E81823009F483C008F042C08111A9
:1011400049C0CE010E94FA0C6DE2CE010E94CD0C86
:101150002FEF83ED90E3215080409040E1F700C0F5
:101160000000CE010E94780140E067E3CE010E94BA
:10117000DC0C8F898823A9F3CE010E94780142E319
:1011800060E0CE010E94DC0C8E818530A9F762E31D
:10119000CE010E94CD0C2FEF8EE994E221508040C9
:1011A0009040E1F700C00000CE010E94FA0C2FEF42
:1011B00087EA91E6215080409040E1F700C00000AE
:1011C00006C0833009F45CC0853009F49FC0DF910C
:1011D000CF910895898D882331F06CE3CE01DF91A2
:1011E000CF910C94BE0C8A8D48E267E3811123C035
:1011F0008B8D882361F0CE010E947801898D811149
:10120000E6CF44E162E3CE010E94DC0CF4CF8F898B
:10121000882361F0CE010E947801898D8111D7CF9A
:1012200042E364E1CE010E94DC0CF4CF888D882378
:1012300071F247E368E2CE01DF91CF910C94DC0CB0
:101240008F89882329F0888D882311F042E3F2CF1B
:101250008B8D882331F08A8D882319F048E262E370
:10126000EACF888D882319F0898D8111EFCF8A8D7F
:10127000882309F4ACCF898D882309F4A8CFEECF59
:10128000898D8823F9F09A8D9923E1F09B8D99231C
:10129000C9F06CE3CE010E94BE0C2FEF80E792E014
:1012A000215080409040E1F700C00000CE010E9434
:1012B0007801898D81118BCF44E162E3CE010E94D8
:1012C000DC0CF4CF9F89992309F481CF988D992361
:1012D00009F47DCF882309F47ACF63E2CE010E941E
:1012E000BE0C2FEF80E792E0215080409040E1F764
:1012F00000C00000CE010E947801898D811167CF66
:1013000042E364E1CE010E94DC0CF4CFCE01DF9118
:10131000CF910C94FA0C0F931F93CF93DF93EC01B2
:1013200013E0CE010E9478018B8D81110BC0CE019C
:101330000E94780144E16CE3CE010E94DC0C8B8DAD
:10134000882391F304E64CE364E1CE010E94DC0CB7
:101350000150C9F7CE010E9478018F8981110BC01D
:10136000CE010E9478014CE364E1CE010E94DC0CC6
:101370008F89882391F304E644E16CE3CE010E9457
:10138000DC0C0150C9F7115061F614E644E16CE33E
:10139000CE010E94DC0C1150C9F7CE010E947801E9
:1013A0008B8D81110BC0CE010E94780144E16CE36A
:1013B000CE010E94DC0C8B8D882391F3DF91CF91BD
:1013C0001F910F91089587B1806C87B9089588B1F6
:1013D00018B8469A089588B118B888B118B8089511
:1013E00088B118B8479A0895CF93DF93D82FC92FA3
:1013F0000E94E7098FE295E70197F1F700C000002E
:101400008D2F9C2F0E94F0098FE097E20197F1F752
:1014100000C00000DF91CF9108951F93CF93DF9319
:10142000D82FC92F1AE08D2F9C2F0E94E7092FEF8C
:1014300080E792E0215080409040E1F700C000003A
:101440008D2F9C2F0E94EB092FEF80E792E0215017
:1014500080409040E1F700C00000115021F7DF917B
:10146000CF911F9108951F93CF93DF93D82FC92F4A
:101470001AE08D2F9C2F0E94F0092FEF80E792E059
:10148000215080409040E1F700C000008D2F9C2F3C
:101490000E94EB092FEF80E792E0215080409040BE
:1014A000E1F700C00000115021F7DF91CF911F91AB
:1014B00008950F931F93CF93DF93EC010AE017E099
:1014C000CE010E94E7098FE19EE40197F1F700C089
:1014D0000000CE010E94F0098FE097E20197F1F73A
:1014E00000C00000115061F7CE010E94EB099FEF90
:1014F00020E782E0915020408040E1F700C00000EA
:101500000150E9F6DF91CF911F910F910895089551
:1015100080EA809300011092B90080E28093B800C5
:101520000895FC0180E88083CF010C94880A982FED
:101530009370891305C0880F806A80930001089515
:101540008FEF0895FA0194EA24E89093BC0080910B
:10155000BC0087FFFCCF809100018093BB002093EB
:10156000BC008091BC0087FFFCCF8091B90088311E
:1015700061F784EA8093BC008091BC0087FFFCCFB8
:10158000809100018093BB0084E88093BC0080912F
:10159000BC0087FFFCCF7093BB0084E88093BC0045
:1015A0008091BC0087FFFCCF6093BB0084E88093F0
:1015B000BC008091BC0087FFFCCF8091BC0087FFFE
:1015C000FCCF84EA8093BC008091BC0087FFFCCFF5
:1015D000809100018F5F8093BB0084E88093BC0002
:1015E0008091BC0087FFFCCF84E88093BC00809191
:1015F000BC0087FFFCCF8091BB00808384E980938F
:10160000BC0080E0089594EA34E89093BC00809197
:10161000BC0087FFFCCF809100018093BB0030931A
:10162000BC008091BC0087FFFCCF8091B90088315D
:1016300061F784EA8093BC008091BC0087FFFCCFF7
:10164000809100018093BB0084E88093BC0080916E
:10165000BC0087FFFCCF7093BB0084E88093BC0084
:101660008091BC0087FFFCCF6093BB0084E880932F
:10167000BC008091BC0087FFFCCF84EA8093BC0053
:101680008091BC0087FFFCCF809100018F5F809329
:10169000BB0084E88093BC008091BC0087FFFCCF36
:1016A00084EC211105C084E98093BC0080E008959A
:1016B000213009F484E88093BC009091BC0097FF2E
:1016C000FCCF9091BB00FA0191932150AF01E9CF7B
:1016D00094EA24E89093BC008091BC0087FFFCCF83
:1016E000809100018093BB002093BC008091BC00DE
:1016F00087FFFCCF8091B900883161F784EA80933D
:10170000BC008091BC0087FFFCCF809100018093DA
:10171000BB0084E88093BC008091BC0087FFFCCFB5
:101720007093BB0084E88093BC008091BC0087FF6D
:10173000FCCF6093BB0084E88093BC008091BC0028
:1017400087FFFCCF4093BB0084E88093BC0080916E
:10175000BC0087FFFCCF84E98093BC0080E0089543
:10176000FB01260F372F311DDC018C918150990B25
:10177000862B9F2B2817390718F09C012F5F3F4FAE
:10178000822F8E1B24EA34E82093BC009091BC0089
:1017900097FFFCCF909100019093BB003093BC0069
:1017A0009091BC0097FFFCCF9091B900983161F700
:1017B00094EA9093BC009091BC0097FFFCCF90916D
:1017C00000019093BB0094E89093BC009091BC0002
:1017D00097FFFCCFF093BB0094E89093BC009091EE
:1017E000BC0097FFFCCFE093BB0094E89093BC0053
:1017F0009091BC0097FFFCCF982F24E8911104C072
:1018000094E99093BC000895FA0131913093BB00A4
:101810002093BC003091BC0037FFFCCF9150AF014A
:10182000EDCFDF92EF92FF920F931F93CF93DF9351
:10183000D82ED92F7B018A01C22F2C2FA801B701E6
:101840008D2D9D2F0E94B00B282F30E0E20EF31E4D
:10185000C81B020F131FC111F0CF80E0DF91CF91A1
:101860001F910F91FF90EF90DF9008952FEFFC01F3
:1018700020838AB180638AB984B1836084B9E0E847
:10188000F0E08081816F8083E1E8F0E08081826018
:1018900080838FEF90E090938900809388009093ED
:1018A0008B0080938A00089570E0709389006093A4
:1018B000880050E050938B0040938A000895FC010B
:1018C0006536710568F44081469FC001479F900DC1
:1018D00011246CE97FEF0E9441118FEF860F08956C
:1018E00080E008950F931F93CF93DF9300D000D033
:1018F00000D0CDB7DEB78A016E837D83FC01808185
:10190000282F30E050E040E029833A834B835C830A
:10191000CA01B9010E940C129B01AC0109831A8310
:101920008E818B83ED81EC8369817A818B819C81AF
:101930000E94691120E030E048EC52E469837A8328
:101940008B839C8369817A818B819C810E94981210
:1019500069837A838B839C8369817A818B819C8163
:101960000E94DB11862F26960FB6F894DEBF0FBEBD
:10197000CDBFDF91CF911F910F91089570E00E942C
:101980005F0C2898299890E09093890080938800B4
:1019900090938B0080938A00089570E00E945F0C02
:1019A000289A299A90E090938900809388009093D8
:1019B0008B0080938A0008950F931F93CF93DF933A
:1019C0008C01D42F70E00E945F0CC82F6D2F70E047
:1019D000C8010E945F0CD0E0D0938900C0938800BA
:1019E00090E090938B0080938A00DF91CF911F91BC
:1019F0000F9108958FEF90E0909389008093880075
:101A000090938B0080938A0008951F921FB61F92B7
:101A100011242F938F939F9380919F01811121C057
:101A200080919D0190919E018C38910591F080915B
:101A30009D0190919E01019690939E0180939D013E
:101A40001092B2009F918F912F911F901FBE1F90F7
:101A5000189581E080939F0110929E0110929D0144
:101A6000F1CF8091A00181110BC080919D019091D7
:101A70009E018C3D9105D9F681E08093A001ECCFC9
:101A80008091A001813049F480919D0190919E0147
:101A90008033924061F682E0F0CF8091A0018230E5
:101AA00051F480919D0190919E01843F914009F0F5
:101AB000BECF83E0E2CF8091A001833051F48091CA
:101AC0009D0190919E018A35910509F0B0CF84E087
:101AD000D4CF8091A001843009F0B4CF80919D01D2
:101AE00090919E018A35910509F0A1CF85E0C5CF7F
:101AF000F8941092B200E0EBF0E090819064908353
:101B0000E1EBF0E0908197609083E0E7F0E0908176
:101B1000926090838093B30078940895CF93DF937D
:101B2000EC01809104018823B9F0CE0101960E9456
:101B30006A0FCE010E940D0A68E2CE0102960E9451
:101B4000BE0C2FEF8EE994E2215080409040E1F7E7
:101B500000C0000010920401CE010496DF91CF91E5
:101B60000C94A307EF92FF920F931F93CF93DF93F1
:101B7000EC01809101017E0122E0E20EF11C88233C
:101B800009F48FC080910301882309F440C0AE019D
:101B90004C5D5F4F61E070E08E010D5F1F4FC8012B
:101BA0000E94A20A8FE295E70197F1F700C00000BA
:101BB000AE014B5D5F4F62E070E0C8010E94A20A77
:101BC0008FE295E70197F1F700C00000AE014A5D92
:101BD0005F4F63E070E0C8010E94A20A8FE295E7C0
:101BE0000197F1F700C00000CE010E94330A4AE3DA
:101BF00067E3C7010E94DC0C9FEF29E688E1915062
:101C000020408040E1F700C00000109203018FEFF8
:101C10000E94780D8E010C5F1F4F8091A0018823D8
:101C200009F448C08FEF0E94780D8E010C5F1F4FA2
:101C30008091A001813009F441C0C7010E94FA0CD3
:101C4000CE010E940D0A9FEF2DE389E491502040C0
:101C50008040E1F700C000008FEF0E94780D8E01F8
:101C60000C5F1F4F8091A001823079F18FEF0E94AD
:101C7000780D8E010C5F1F4F8091A001833061F1C0
:101C80008FEF0E94780D8E010C5F1F4F8091A00195
:101C9000843031F124968091A001853041F1109279
:101CA0000101C701DF91CF911F910F91FF90EF903C
:101CB0000C94FA0CC8010E94A506AFCF2EA14DA12D
:101CC0006CA1C8010E94B801B3CF2EA14DA16CA197
:101CD000C8010E94B801C6CFC8010E94A506CCCF9A
:101CE0002EA14DA16CA1C8010E94B801CFCFCE0199
:101CF0000E94A506D0CFCF93DF93EC018091020123
:101D00008823A1F0CE010E94590A4AE367E3CE017D
:101D100002960E94DC0C2FEF87E893E1215080406F
:101D20009040E1F700C00000109202018FEF0E9486
:101D3000780D249680919F01882351F0CE010E9456
:101D40008B0980919F01813039F0DF91CF91089507
:101D5000CE010E949408EECFCE010E949408F1CFEC
:101D60002A980895CF93DF9300D000D0CDB7DEB787
:101D70002A9A282F2D52330BF901EE0FFF1FEE0F79
:101D8000FF1FEB5FFE4F208131814281538160E074
:101D900070E080E89FE30E94691120E034E244EFA4
:101DA0005AE469837A838B839C8369817A818B81EE
:101DB0009C810E94981220E030E040E05FE369835C
:101DC0007A838B839C8369817A818B819C810E9439
:101DD000981220E030E040E85BE369837A838B83EC
:101DE0009C8369817A818B819C810E94981269838E
:101DF0007A838B839C8369817A818B819C810E9409
:101E0000DB1167BD0F900F900F900F90DF91CF9176
:101E10000895239A84B5826484BD85B5846085BDA8
:101E20000895CF93DF9300D000D0CDB7DEB72A9AC4
:101E3000862F8D52990BFC01EE0FFF1FEE0FFF1F37
:101E4000EB5FFE4F208131814281538160E070E081
:101E500080E89FE30E94691120E034E244EF5AE4F5
:101E600069837A838B839C8369817A818B819C814E
:101E70000E94981220E030E040E05FE369837A83BB
:101E80008B839C8369817A818B819C810E949812CB
:101E900020E030E040E85BE369837A838B839C83B6
:101EA00069817A818B819C810E94981269837A83EF
:101EB0008B839C8369817A818B819C810E94DB1159
:101EC00067BD0F900F900F900F90DF91CF91089505
:101ED0002A98089580E40E94B20E2FEF81EE94E0DC
:101EE000215080409040E1F700C000000E94B00EF9
:101EF0008FE79EE30197F1F700C0000080E40E94A5
:101F0000B20E9FEF23E185E0915020408040E1F741
:101F100000C000000E94B00E9FEF23E185E09150C9
:101F200020408040E1F700C0000080E40E94B20E33
:101F30009FEF23E185E0915020408040E1F700C011
:101F400000000E94B00E9FEF23E185E091502040F9
:101F50008040E1F700C000008CE30E94B20E9FEFCA
:101F600023E185E0915020408040E1F700C000006F
:101F700080E40E94B20E9FEF23E185E09150204063
:101F80008040E1F700C000000E94B00E9FEF23E107
:101F900085E0915020408040E1F700C0000083E4DC
:101FA0000E94B20E9FEF23E185E0915020408040D7
:101FB000E1F700C000000E94B00E9FEF2BE38FE01E
:101FC000915020408040E1F700C0000087E30E946C
:101FD000B20E9FEF23E185E0915020408040E1F771
:101FE00000C000000C94B00E87E40E94B20E2FEFE8
:101FF00082E597E0215080409040E1F700C000006A
:102000008DE40E94B20E2FE789EA93E021508040D0
:102010009040E1F700C000000E94B00E2FE78CEF67
:102020009AE0215080409040E1F700C000008DE42C
:102030000E94B20E2FE784E197E02150804090404B
:10204000E1F700C000000E94B00E8FE19EE401970E
:10205000F1F700C000008DE40E94B20E9FEF22E570
:1020600087E0915020408040E1F700C000008CE400
:102070000E94B20E9FEF22E587E091502040804001
:10208000E1F700C000008AE40E94B20E9FEF22E553
:1020900087E0915020408040E1F700C0000088E4D4
:1020A0000E94B20E9FEF22E587E0915020408040D1
:1020B000E1F700C0000080E40E94B20E9FE729EA29
:1020C00083E0915020408040E1F700C000000E9472
:1020D000B00E9FEF22E587E0915020408040E1F76D
:1020E00000C0000080E40E94B20E9FE729EA83E06E
:1020F000915020408040E1F700C000008CE30E9436
:10210000B20E9FE729EA83E0915020408040E1F73A
:1021100000C000000C94B00E1092C5008FEC8093AC
:10212000C400E1ECF0E0808188618083E2ECF0E0C3
:1021300080818660808308958091C00085FFFCCFF8
:102140006093C60008958091C00087FFFCCF809106
:10215000C6000895EF92FF920F931F93CF93DF93E2
:10216000182F092FEB017B01E40EF11CCE15DF05C2
:1021700039F4DF91CF911F910F91FF90EF90089567
:102180006991812F902F0E949C10F0CF10927C00BB
:1021900086E880937A00089510927A0008958091DD
:1021A0007C00807E80937C0080917C006770682B2F
:1021B00060937C0080917A00806480937A008091A3
:1021C0007A0084FFFCCF80917A00806180937A004E
:1021D000209178008091790090E0982F8827820FD5
:1021E000911D0895CDB7DEB7A8970FB6F894DEBF5E
:1021F0000FBECDBF8E010F5F1F4FC8010E94E309C4
:10220000CE0102960E94090FCE0103960E94360C61
:10221000CE0104960E94910ACE0105960E94B30059
:10222000CE0188960E94910A0E94A9000E949F00F8
:1022300080919C01813079F08230C1F08111F8CF1A
:10224000C8010E94E70980919A01882389F3C80197
:102250000E948E0DEDCFC8010E94F00980919A0175
:10226000882331F3C8010E94B20DE2CFC8010E9459
:10227000F40980919A018823D9F2C8010E947B0E4B
:10228000D7CF97FB072E16F4009407D077FD09D01F
:102290000E94551107FC05D03EF4909581959F4F03
:1022A0000895709561957F4F0895AA1BBB1B51E15E
:1022B00007C0AA1FBB1FA617B70710F0A61BB70BB6
:1022C000881F991F5A95A9F780959095BC01CD015B
:1022D00008950E947D110C945E120E94571258F0CE
:1022E0000E94501240F029F45F3F29F00C944712ED
:1022F00051110C9492120C944D120E946F1268F3BB
:102300009923B1F3552391F3951B550BBB27AA27AE
:1023100062177307840738F09F5F5F4F220F331FE8
:10232000441FAA1FA9F335D00E2E3AF0E0E832D0B0
:1023300091505040E695001CCAF72BD0FE2F29D0B3
:10234000660F771F881FBB1F261737074807AB0785
:10235000B0E809F0BB0B802DBF01FF2793585F4FFA
:102360003AF09E3F510578F00C9447120C9492126B
:102370005F3FE4F3983ED4F3869577956795B795DC
:10238000F7959F5FC9F7880F911D9695879597F9E7
:102390000895E1E0660F771F881FBB1F6217730760
:1023A0008407BA0720F0621B730B840BBA0BEE1F75
:1023B00088F7E09508950E94771288F09F5798F06B
:1023C000B92F9927B751B0F0E1F0660F771F881F3A
:1023D000991F1AF0BA95C9F714C0B13091F00E9454
:1023E0009112B1E008950C949112672F782F8827ED
:1023F000B85F39F0B93FCCF3869577956795B3957B
:10240000D9F73EF490958095709561957F4F8F4FE9
:102410009F4F0895E89409C097FB3EF490958095EE
:10242000709561957F4F8F4F9F4F9923A9F0F92F9A
:1024300096E9BB279395F695879577956795B79518
:10244000F111F8CFFAF4BB0F11F460FF1BC06F5FFE
:102450007F4F8F4F9F4F16C0882311F096E911C010
:10246000772321F09EE8872F762F05C0662371F031
:1024700096E8862F70E060E02AF09A95660F771F45
:10248000881FDAF7880F9695879597F9089597F939
:102490009F6780E870E060E008959FEF80EC08950A
:1024A00000240A9416161706180609060895002433
:1024B0000A9412161306140605060895092E0394AD
:1024C000000C11F4882352F0BB0F40F4BF2B11F421
:1024D00060FF04C06F5F7F4F8F4F9F4F089557FD80
:1024E0009058440F551F59F05F3F71F04795880F82
:1024F00097FB991F61F09F3F79F087950895121619
:1025000013061406551FF2CF4695F1DF08C01616C4
:1025100017061806991FF1CF869571056105089475
:102520000895E894BB2766277727CB0197F908958C
:102530000E94AB120C945E120E94501238F00E945E
:10254000571220F0952311F00C9447120C944D1261
:1025500011240C9492120E946F1270F3959FC1F394
:10256000950F50E0551F629FF001729FBB27F00D41
:10257000B11D639FAA27F00DB11DAA1F649F662796
:10258000B00DA11D661F829F2227B00DA11D621FE5
:10259000739FB00DA11D621F839FA00D611D221F9F
:1025A000749F3327A00D611D231F849F600D211D83
:1025B000822F762F6A2F11249F5750409AF0F1F006
:1025C00088234AF0EE0FFF1FBB1F661F771F881F6F
:1025D00091505040A9F79E3F510580F00C9447124E
:1025E0000C9492125F3FE4F3983ED4F3869577956E
:1025F0006795B795F795E7959F5FC1F7FE2B880F15
:0E260000911D9695879597F90895F894FFCF50
:10260E00A0010101010000DC427B14E942A4F0F6B6
:10261E00425CCF02430A9702437BD412435C8F1B6A
:10262E00435CCF2443299C2E4300003943000044D1
:10263E004366A64F4300005C437B146943A4F076C7
:10264E0043A4D082430A978A437BD49243A4909B9F
:10265E0043A4D0A443719DAE43B8FEB8430000C45A
:10266E004366A6CF430000DC437B14E943A4F0F697
:10267E004300D00244AE970A441FD5124400901B6B
:10268E0044A4D02444719D2E445CFF38445CFF4327
:0A269E00440AA74F4400005C44000A
:00000001FF
