:100000000C943E000C9448000C9448000C9448005A
:100010000C9448000C9448000C9448000C94480040
:100020000C9448000C9448000C9448000C94480030
:100030000C9448000C9448000C9448000C94480020
:100040000C9448000C9448000C9448000C94480010
:100050000C9448000C9448000C9448000C94480000
:100060000C9448000C9448000C9448000C944800F0
:100070000C9448000C9448000C94480011241FBEB6
:10008000CFEFD8E0DEBFCDBF0E94C4000C94C80003
:100090000C940000299A2898089510927C0086E814
:1000A00080937A00089510927A00089580917C00E0
:1000B000807E80937C0080917C006770682B6093C9
:1000C0007C0080917A00806480937A0080917A002D
:1000D00084FFFCCF80917A00806180937A00209128
:1000E00078008091790090E0982F8827820F911DE9
:1000F000089581B18C6F81B984B1836084B908950A
:100100008130910539F08230910539F0892BC9F49D
:100110000C944A00289A2998089581E090E00E9462
:1001200080008FE19EE40197F1F700C0000090E0AD
:1001300080E00E9480008FEC97E00197F1F700C00B
:1001400000000895CF93DF930F92CDB7DEB71092E2
:100150007C0086E880937A0060E0CE0101960E94E0
:100160005600969587959695879587FD05C081E001
:1001700090E00E948000F0CF8D3C18F00E944A0071
:10018000EBCF82E090E0F5CF0E9479000E94A200C0
:04019000F894FFCF11
:00000001FF
