:100000000C943E000C9448000C9448000C9448005A
:100010000C9448000C9448000C9448000C94480040
:100020000C9448000C9448000C9448000C94480030
:100030000C9448000C9448000C9448000C94480020
:100040000C9448000C9448000C9448000C94480010
:100050000C9448000C9448000C9448000C94480000
:100060000C9448000C9448000C9448000C944800F0
:100070000C9448000C9448000C94480011241FBEB6
:10008000CFEFD8E0DEBFCDBF0E94A2000C94E50008
:100090000C940000529881B1836081B912B8089520
:1000A0004A9B0BC08FE097E20197F1F700C0000078
:1000B00089B182FB882780F9089580E00895823015
:1000C000910579F02CF4009749F0019721F00895FB
:1000D0000397E1F00895109A11980895119A1098D5
:1000E000089581E090E00E945F008FE19EE4019717
:1000F000F1F700C0000090E080E00E945F008FEC0C
:1001000097E00197F1F700C00000089582B18C7F5D
:1001100082B90895109289001092880090E090931F
:100120008B0080938A00E0E8F0E08081816A808320
:10013000E1E8F0E0808182608083E2E8F0E08081A5
:10014000808308950E944A0080E00E948A002FEF79
:1001500083ED90E3215080409040E1F700C0000023
:1001600081E082B980E40E948A002FEF83ED90E362
:10017000215080409040E1F700C0000080E80E94DC
:100180008A002FEF83ED90E3215080409040E1F70B
:1001900000C000008FEB0E948A002FEF83ED90E3F8
:1001A000215080409040E1F700C000008FEF0E9496
:1001B0008A002FEF83ED90E3215080409040E1F7DB
:0E01C00000C0000090E080E00895F894FFCFAA
:00000001FF
