:100000000C943E000C9491000C9450000C94500001
:100010000C9450000C9450000C9450000C94500020
:100020000C9450000C9450000C9450000C94500010
:100030000C9450000C9450000C9450000C94500000
:100040000C9450000C9450000C9450000C945000F0
:100050000C9450000C9450000C9450000C945000E0
:100060000C9450000C9450000C9450000C945000D0
:100070000C9450000C9450000C94500011241FBE9E
:10008000CFEFD8E0DEBFCDBF21E0A0E0B1E001C0FE
:100090001D92A130B207E1F70E94CF000C94F0004E
:1000A0000C940000529881B1836081B908954A9BF5
:1000B0000BC08FE097E20197F1F700C0000089B113
:1000C00082FB882780F9089580E0089582309105A9
:1000D00079F02CF4009749F0019721F008950397E7
:1000E000E1F00895109A11980895119A10980895C2
:1000F00081E090E00E9466008FE19EE40197F1F7B5
:1001000000C0000090E080E00E9466008FEC97E065
:100110000197F1F700C00000089582B18C7F82B989
:1001200008951F921FB61F9211248F939F938FE5FE
:100130009AEE0197F1F700C000004A9B0BC0809136
:1001400000018330E9F068F48130B1F08230B1F021
:10015000882371F0E09A9F918F911F901FBE1F908E
:100160001895843079F08530A9F710920001F2CF0C
:1001700081E080930001EECF82E0FBCF83E0F9CFF6
:1001800084E0F7CF85E0F5CFF8940E945200E9E6CD
:10019000F0E0808183608083E89A789408950E94DB
:1001A000C40010920001C1E0809100018630E0F7A8
:1001B0009C2F01C0990F8A95EAF7892F947269F4F0
:1001C000982F927139F4897079F390E080E00E9461
:1001D0006600EACF83E090E0FACF81E090E0F7CFCD
:0401E000F894FFCFC1
:00000001FF
