:100000000C943E000C9448000C9448000C9448005A
:100010000C9448000C9448000C9448000C94480040
:100020000C9448000C9448000C9448000C94480030
:100030000C9448000C9448000C9448000C94480020
:100040000C9448000C9448000C9448000C94480010
:100050000C9448000C9448000C9448000C94480000
:100060000C9448000C9448000C9448000C944800F0
:100070000C9448000C9448000C94480011241FBEB6
:10008000CFEFD8E0DEBFCDBF0E94BA000C94C00015
:100090000C940000529881B1836081B908954A9B05
:1000A0000BC08FE097E20197F1F700C0000089B123
:1000B00082FB882780F9089580E0089582309105B9
:1000C00079F02CF4009749F0019721F008950397F7
:1000D000E1F00895109A11980895119A10980895D2
:1000E00081E090E00E945E008FE19EE40197F1F7CD
:1000F00000C0000090E080E00E945E008FEC97E07E
:100100000197F1F700C00000089582B18C7F82B999
:10011000089590E080E00E945E000E944F008823D6
:10012000C1F382E090E00E945E000E944F008111C6
:10013000F8CF81E090E00E945E000E944F0088238B
:10014000C1F390E080E00E945E000E944F008111A8
:10015000F8CF83E090E00E945E000E944F00882369
:10016000C1F381E090E00E945E000E944F00811187
:10017000F8CFCFCF8FEF84B985B990E080E00895B4
:04018000F894FFCF21
:00000001FF
