:100000000C943E000C9448000C9448000C9448005A
:100010000C9448000C9448000C9448000C94480040
:100020000C9448000C9448000C9448000C94480030
:100030000C9448000C9448000C9448000C94480020
:100040000C9448000C9448000C9448000C94480010
:100050000C9448000C9448000C9448000C94480000
:100060000C9448000C9448000C9448000C944800F0
:100070000C9448000C9448000C94480011241FBEB6
:10008000CFEFD8E0DEBFCDBF0E9496000C94B10048
:100090000C94000081B1836081B90895823091058C
:1000A00079F02CF4009749F0019721F00895039717
:1000B000E1F00895109A11980895119A10980895F2
:1000C00081E090E00E944E008FE99FE00197F1F7F8
:1000D00000C0000090E080E00E944E008FE39FE1AE
:1000E0000197F1F700C00000089582B18C7F82B9BA
:1000F00008954A9B0BC08FE19EE40197F1F700C081
:10010000000089B182FB882780F9089580E0089576
:100110009C012115310509F408958FEC97E00197B2
:10012000F1F700C0000021503109F3CF0E944A00CE
:10013000CCE1D0E00DE110E081E090E00E944E00C3
:10014000CE010E94880083E090E00E944E00C8012A
:100150008C1B9D0B0E948800219771F790E080E036
:060160000895F894FFCFA2
:00000001FF
