:100000000C943E000C9448000C9448000C9448005A
:100010000C9448000C9448000C9448000C94480040
:100020000C9448000C9448000C9448000C94480030
:100030000C9448000C9448000C9448000C94480020
:100040000C9448000C9448000C9448000C94480010
:100050000C9448000C9448000C9448000C94480000
:100060000C9448000C9448000C9448000C944800F0
:100070000C9448000C9448000C94480011241FBEB6
:10008000CFEFD8E0DEBFCDBF0E94FC000C9434025D
:100090000C94000084B1836084B9089585B115B8CB
:1000A000289A089585B115B885B115B8089585B118
:1000B00015B8299A0895CF93DF93D82FC92F0E949E
:1000C0004E008FE19EE40197F1F700C000008D2FF4
:1000D0009C2F0E9457008FE097E20197F1F700C034
:1000E0000000DF91CF9108952FEFFC0120838AB1AA
:1000F000806F8AB9E0E8F0E08081816F8083E1E879
:10010000F0E08081826080838FEF90E0909389009F
:100110008093880090938B0080938A00089570E00C
:10012000709389006093880050E050938B00409357
:100130008A000895FC012081269FC001279F900D11
:1001400011246CE97FEF0E940C028FEF860F089557
:10015000FC018081689FC00111246CE97FEF0E943F
:100160000C0261505E985F9870E070938900609314
:10017000880070938B0060938A000895FC01808151
:10018000689FC00111246CE97FEF0E940C0261504E
:100190005E9A5F9A70E07093890060938800709314
:1001A0008B0060938A000895DC01EC916E9FC00182
:1001B00011242CE93FEFB9010E940C02615070E05C
:1001C00070938900609388004E9FC0011124B9018B
:1001D0000E940C02615070E070938B0060938A0063
:1001E00008958FEF90E0909389008093880090931A
:1001F0008B0080938A00089500D0CDB7DEB7CE0182
:1002000002960E947400CE0101960E944A00CE011F
:1002100001960E944E0064E6CE0102960E94A8005C
:100220002FEF8DE399E4215080409040E1F700C02A
:100230000000CE0102960E94F1002FEF8DE399E4B9
:10024000215080409040E1F700C00000CE010196AF
:100250000E94570042E360E0CE0102960E94D40063
:100260002FEF83ED90E3215080409040E1F700C0F4
:100270000000CE0102960E94F1002FEF8DE399E479
:10028000215080409040E1F700C00000CE0101966F
:100290000E944E0064E6CE0102960E94A8002FEF55
:1002A0008DE399E4215080409040E1F700C00000C8
:1002B000CE0102960E94F1002FEF8DE399E42150C8
:1002C00080409040E1F700C00000CE0101960E94FE
:1002D000570042E360E0CE0102960E94D4002FEF67
:1002E00083ED90E3215080409040E1F700C0000092
:1002F000CE0102960E94F1002FEF8DE399E4215088
:1003000080409040E1F700C00000CE0101960E94BD
:100310004E0064E6CE0102960E94A8002FEF8DE306
:1003200099E4215080409040E1F700C00000CE01E8
:1003300002960E94F1002FEF8DE399E42150804056
:100340009040E1F700C00000CE0101960E945700E6
:1003500042E360E0CE0102960E94D4002FEF83EDCD
:1003600090E3215080409040E1F700C00000CE01B2
:1003700002960E94F1002FEF8DE399E42150804016
:100380009040E1F700C00000CE0101960E944E00AF
:1003900064E6CE0102960E94A8002FEF8DE399E457
:1003A000215080409040E1F700C00000CE0102964D
:1003B0000E94F1002FEF8DE399E42150804090409E
:1003C000E1F700C00000CE0101960E94570042E311
:1003D00060E0CE0102960E94D4002FEF83ED90E3FF
:1003E000215080409040E1F700C00000CE0102960D
:1003F0000E94F1002FEF8DE399E42150804090405E
:10040000E1F700C00000CE0101960E94520090E08A
:1004100080E00F900F90089597FB072E16F400943C
:1004200007D077FD09D00E94200207FC05D03EF4DA
:10043000909581959F4F0895709561957F4F089590
:10044000AA1BBB1B51E107C0AA1FBB1FA617B707FA
:1004500010F0A61BB70B881F991F5A95A9F7809516
:0C0460009095BC01CD010895F894FFCFE9
:00000001FF
