:100000000C943E000C9448000C9448000C9448005A
:100010000C9448000C9448000C9448000C94480040
:100020000C9448000C9448000C9448000C94480030
:100030000C9448000C9448000C9448000C94480020
:100040000C9448000C9448000C9448000C94480010
:100050000C9448000C9448000C9448000C94480000
:100060000C9448000C9448000C9448000C944800F0
:100070000C9448000C9448000C94480011241FBEB6
:10008000CFEFD8E0DEBFCDBF0E945A010C9499019A
:100090000C9400000E943A0184B1806F84B90895E5
:1000A0000C944F011F93CF93DF93D82FC92F162F96
:1000B0002E9A2C9A1D981F980E941101612F8D2F46
:1000C0009C2F0E9414018D2F9C2FDF91CF911F91A7
:1000D0000C944D011F93CF93DF93D82FC92F162F68
:1000E0002E9A2C9A1D9A1F9A0E941101612F8D2F12
:1000F0009C2F0E9414018D2F9C2FDF91CF911F9177
:100100000C944D011F93CF93DF93D82FC92F0E94DA
:100110001A01182F60E08D2F9C2F0E9414018D2F43
:100120009C2F0E944D012FEF80E792E021508040EC
:100130009040E1F700C00000612F8D2F9C2F0E949E
:1001400014018D2F9C2FDF91CF911F910C944D01A5
:100150001F93CF93DF93D82FC92F0E941701182F19
:1001600060E08D2F9C2F0E9411018D2F9C2F0E94EB
:100170004D012FEF80E792E0215080409040E1F761
:1001800000C00000612F8D2F9C2F0E9411018D2F28
:100190009C2FDF91CF911F910C944D010F931F93D2
:1001A000CF93DF93D82FC92F0E941A01082F8D2FCC
:1001B0009C2F0E941701182F1D981F9A62E38D2F04
:1001C0009C2F0E94140162E38D2F9C2F0E9411012D
:1001D0008D2F9C2F0E944D012FEF81EE94E0215036
:1001E00080409040E1F700C00000602F8D2F9C2FD1
:1001F0000E941401612F8D2F9C2F0E9411018D2FC1
:100200009C2FDF91CF911F910F910C944F01FC0116
:10021000862F64E60E948D019081899F802D112494
:100220000895FC0161830895FC0162830895FC0137
:1002300081810895FC0182810895109285001092B9
:10024000840070E0709389006093880050E05093C0
:100250008B0040938A00E0E8F0E08081816A80832F
:10026000E1E8F0E0808182608083E2E8F0E0808174
:1002700080830895FC012081828134E6632F0E94EF
:100280008D01829F402D112481810E948D01829FCA
:10029000602D1124CF010C941D010C943A018FEFB5
:1002A00090E0909389008093880090938B008093D6
:1002B0008A00089500D000D0CDB7DEB71A821B8225
:1002C0008FEF8983CE0101960E944A006AE0CE0139
:1002D00001960E9452002FEF8DE399E42150804057
:1002E0009040E1F700C0000061E0CE0101960E945D
:1002F00052002FEF8DE399E4215080409040E1F7C8
:1003000000C00000CE0101960E94500090E080E005
:100310000F900F900F900F900895991B79E004C0F3
:10032000991F961708F0961B881F7A95C9F7809534
:060330000895F894FFCFD0
:00000001FF
