:100000000C943E000C9448000C9448000C9448005A
:100010000C9448000C9448000C9448000C94480040
:100020000C9448000C9448000C9448000C94480030
:100030000C9448000C9448000C9448000C94480020
:100040000C9448000C9448000C9448000C94480010
:100050000C9448000C9448000C9448000C94480000
:100060000C9448000C9448000C9448000C944800F0
:100070000C9448000C9448000C94480011241FBEB6
:10008000CFEFD8E0DEBFCDBF0E94C0000C9430019E
:100090000C94000070E0709389006093880050E039
:1000A00050938B0040938A000895FC012081269F85
:1000B000C001279F900D11246CE97FEF0E94080179
:1000C0008FEF860F0895FC018081689FC001112485
:1000D0006CE97FEF0E94080161505E985F9870E0C4
:1000E000709389006093880070938B0060938A00FE
:1000F0000895FC018FEF80838AB1806F8AB9A0E8F0
:10010000B0E08C91816F8C93A1E8B0E08C9182601B
:100110008C9360E0CF010C946300FC018081689FA8
:10012000C00111246CE97FEF0E94080161505E9AC2
:100130005F9A70E0709389006093880070938B00E1
:1001400060938A000895DC01EC916E9FC001112438
:100150002CE93FEFB9010E940801615070E07093F3
:100160008900609388004E9FC0011124B9010E944C
:100170000801615070E070938B0060938A000895CD
:100180000F92CDB7DEB7CE0101960E94790064E6EA
:10019000CE0101960E9463002FEF8DE399E4215078
:1001A00080409040E1F700C0000060E0CE01019681
:1001B0000E9463002FEF8DE399E42150804090402E
:1001C000E1F700C0000064E6CE0101960E948D00B8
:1001D0002FEF8DE399E4215080409040E1F700C07B
:1001E000000064E6CE0101960E9463002FEF8DE3CC
:1001F00099E4215080409040E1F700C0000060E0A9
:10020000CE0101960E94630090E080E00F90089577
:1002100097FB072E16F4009407D077FD09D00E94B3
:100220001C0107FC05D03EF4909581959F4F0895E1
:10023000709561957F4F0895AA1BBB1B51E107C0C4
:10024000AA1FBB1FA617B70710F0A61BB70B881F66
:10025000991F5A95A9F780959095BC01CD010895F5
:04026000F894FFCF40
:00000001FF
