:100000000C943E000C9448000C9448000C9448005A
:100010000C9448000C9448000C9448000C94480040
:100020000C9448000C9448000C9448000C94480030
:100030000C9448000C9448000C9448000C94480020
:100040000C9448000C9448000C9448000C94480010
:100050000C9448000C9448000C9448000C94480000
:100060000C9448000C9448000C9448000C944800F0
:100070000C9448000C9448000C94480011241FBEB6
:10008000CFEFD8E0DEBFCDBF0E94D6000C942A018E
:100090000C940000CB01892B11F45E980895613017
:1000A000710509F45E9A0895CB01892B11F42F98FC
:1000B00008956130710509F42F9A089570E07093E6
:1000C00089006093880050E050938B0040938A0031
:1000D0000895FC012081269FC001279F900D1124C7
:1000E0006CE97FEF0E9402018FEF860F0895FC01FB
:1000F0008081689FC00111246CE97FEF0E9402019A
:1001000061502F985E9870E070938900609388002A
:1001100070938B0060938A000895FC018FEF8083B9
:100120008AB1806F8AB9A0E8B0E08C91816F8C931E
:10013000A1E8B0E08C9182608C9360E0CF010C94D8
:100140007700FC018081689FC00111246CE97FEF7A
:100150000E94020161502F9A5E9A70E070938900AC
:100160006093880070938B0060938A000895DC018F
:10017000EC912F985E986E9FC00111242CE93FEFFF
:10018000B9010E940201615070E070938900609390
:1001900088004E9FC0011124B9010E9402016150E4
:1001A00070E070938B0060938A0008950F92CDB732
:1001B000DEB7CE0101960E948D006AE0CE01019665
:1001C0000E9477002FEF8DE399E42150804090400A
:1001D000E1F700C0000068E2CE0101960E947700BE
:1001E0002FEF8DE399E4215080409040E1F700C06B
:1001F000000060E0CE0101960E94770090E080E070
:100200000F90089597FB072E16F4009407D077FD02
:1002100009D00E94160107FC05D03EF49095819507
:100220009F4F0895709561957F4F0895AA1BBB1B42
:1002300051E107C0AA1FBB1FA617B70710F0A61BE6
:10024000B70B881F991F5A95A9F780959095BC0107
:08025000CD010895F894FFCFE1
:00000001FF
