:100000000C943E000C9497000C9450000C945000FB
:100010000C9450000C9450000C9450000C94500020
:100020000C9450000C9450000C9450000C94500010
:100030000C9450000C9491000C9450000C945000BF
:100040000C9450000C9450000C9450000C945000F0
:100050000C9450000C9450000C9450000C945000E0
:100060000C9450000C9450000C9450000C945000D0
:100070000C9450000C9450000C94500011241FBE9E
:10008000CFEFD8E0DEBFCDBF21E0A0E0B1E001C0FE
:100090001D92A230B207E1F70E94C9000C940C0136
:1000A0000C940000529881B1836081B908954A9BF5
:1000B0000BC08FE097E20197F1F700C0000089B113
:1000C00082FB882780F9089580E0089582309105A9
:1000D00079F02CF4009749F0019721F008950397E7
:1000E000E1F00895109A11980895119A10980895C2
:1000F00081E090E00E9466008FE19EE40197F1F7B5
:1001000000C0000090E080E00E9466008FEC97E065
:100110000197F1F700C00000089582B18C7F82B989
:1001200008958F9381E0809301018F9118958F93AB
:100130008FB78F939F9381E0809300018FE59AEEB4
:100140000197F1F700C000009F918F918FBF8F91B1
:1001500018959C01109285001092840088E080938D
:10016000800085E0809381001092820082E080937D
:100170006F0030938900209388000895F8940E94BE
:100180005200E9E6F0E0808183608083E89A789409
:1001900008950E94BE002FEF8DE399E42150804026
:1001A0009040E1F700C0000090E080E00E9466000F
:1001B0002FEF80E792E0215080409040E1F700C0AF
:1001C000000083E090E00E94660084E89EE10E94C7
:1001D000A90080910101811104C080910001882350
:1001E000C1F3F89480910101813021F480910001E4
:1001F000882359F080910001813059F480910101E8
:10020000811107C081E090E002C090E080E00E9490
:0C021000660090E080E00895F894FFCFB5
:00000001FF
