:100000000C943E000C9448000C9448000C9448005A
:100010000C9448000C9448000C9448000C94480040
:100020000C9448000C9448000C9448000C94480030
:100030000C9448000C9448000C9448000C94480020
:100040000C9448000C9448000C9448000C94480010
:100050000C9448000C9448000C9448000C94480000
:100060000C9448000C9448000C9448000C944800F0
:100070000C9448000C9448000C94480011241FBEB6
:10008000CFEFD8E0DEBFCDBF0E94B6000C940701D1
:100090000C94000084B1836084B908958230910586
:1000A00079F02CF4009749F0019721F00895039717
:1000B000E1F00895109A11980895119A10980895F2
:1000C00081E090E00E944E008FE99FE00197F1F7F8
:1000D00000C0000090E080E00E944E008FE39FE1AE
:1000E0000197F1F700C00000089582B18C7F82B9BA
:1000F00008954A9B0BC08FE19EE40197F1F700C081
:10010000000089B182FB882780F9089580E0089576
:100110009C012115310509F408958DE08A95F1F7C8
:10012000000021503109F5CFDF92EF92FF920F933B
:100130001F93CF93DF93EC0108E710E082E0D82E05
:100140007B01EC1AFD0AD5B8CE010E94880015B8D3
:10015000C7010E94880001501109A9F7DF91CF91D2
:100160001F910F91FF90EF90DF9008950E944A0039
:10017000C1E0D0E090E080E0C630D10519F490E015
:1001800080E008958D3820E2920779F17CF40097A1
:10019000F1F0863420E1920779F76AE171E486E4B0
:1001A00090E10E9494008DE890E21DC0833D20E321
:1001B000920721F18A3121E49207F1F66AE171E4B4
:1001C0008AE191E40E94940080E090E00CC015B8B0
:1001D0008FEF93ED20E3815090402040E1F700C085
:1001E000000086E490E12196C7CF6AE171E48DE8D2
:1001F00090E20E94940083ED90E3F5CF6AE171E410
:1002000083ED90E30E9494008AE191E4ECCFF894AE
:02021000FFCF1E
:00000001FF
