:100000000C943E000C9491000C9450000C94500001
:100010000C9450000C9450000C9450000C94500020
:100020000C9450000C9450000C9450000C94500010
:100030000C9450000C9450000C9450000C94500000
:100040000C9450000C9450000C9450000C945000F0
:100050000C9450000C9450000C9450000C945000E0
:100060000C9450000C9450000C9450000C945000D0
:100070000C9450000C9450000C94500011241FBE9E
:10008000CFEFD8E0DEBFCDBF21E0A0E0B1E001C0FE
:100090001D92A130B207E1F70E94E9000C94ED0037
:1000A0000C940000529881B1836081B908954A9BF5
:1000B0000BC08FE097E20197F1F700C0000089B113
:1000C00082FB882780F9089580E0089582309105A9
:1000D00079F02CF4009749F0019721F008950397E7
:1000E000E1F00895109A11980895119A10980895C2
:1000F00081E090E00E9466008FE19EE40197F1F7B5
:1001000000C0000090E080E00E9466008FEC97E065
:100110000197F1F700C00000089582B18C7F82B989
:1001200008951F921FB61F9211248F939F938FE5FE
:100130009AEE0197F1F700C0000080910001833032
:10014000E9F068F48130B1F08230B1F0882371F0C9
:10015000E09A9F918F911F901FBE1F901895843039
:1001600079F08530A9F710920001F2CF81E08093F9
:100170000001EECF82E0FBCF83E0F9CF84E0F7CF40
:1001800085E0F5CFF8940E94520088E080936900E2
:1001900081E08DBB7894089580910001833039F01F
:1001A00058F4813081F0823059F08111F5CF90E020
:1001B00080E00E946600F0CF843041F0853061F726
:1001C00081E090E0F6CF82E090E0F3CF83E090E032
:0E01D000F0CF0E94C2000E94CC00F894FFCF36
:00000001FF
