:100000000C943E000C9448000C9448000C9448005A
:100010000C9448000C9448000C9448000C94480040
:100020000C9448000C9448000C9448000C94480030
:100030000C9448000C9448000C9448000C94480020
:100040000C9448000C9448000C9448000C94480010
:100050000C9448000C9448000C9448000C94480000
:100060000C9448000C9448000C9448000C944800F0
:100070000C9448000C9448000C94480011241FBEB6
:10008000CFEFD8E0DEBFCDBF0E949E000C94AC0045
:100090000C9400008FEF8AB981B1836081B912B8E6
:1000A00008954A9B0BC08FE097E20197F1F700C0DB
:1000B000000089B182FB882780F9089580E00895C7
:1000C0008230910579F02CF4009749F0019721F0E6
:1000D00008950397E1F00895109A11980895119AE0
:1000E0001098089581E090E00E9460008FE19EE406
:1000F0000197F1F700C0000090E080E00E946000EE
:100100008FEC97E00197F1F700C00000089582B1ED
:100110008C7F82B9089590E0909389008093880045
:1001200090938B0080938A00E0E8F0E08081816FFB
:100130008083E2E8F0E080818083089584B1886262
:1001400084B984B5826484BD85B5846085BD8BE443
:0C01500087BD90E080E00895F894FFCF98
:00000001FF
